:020000040000FA
:1000000020320010A9010000B1010000B30100007E
:10001000B5010000B7010000B901000000000000B8
:10002000000000000000000000000000BB01000014
:10003000BD010000000000002F740000BB3500006F
:10004000C3010000074200007D4200008B42000017
:1000500099420000E9440000C3010000C301000010
:10006000C3010000C3010000C3010000C301000080
:10007000C30100004B6F0000C3010000C30100007A
:10008000C3010000C3010000874400009744000042
:10009000BB6E0000A7440000776E0000C3010000A3
:1000A000C3010000C3010000C3010000C301000040
:1000B000C3010000C3010000C3010000C301000030
:1000C000C3010000C3010000C301000000F002F8FA
:1000D00000F05AF80AA090E8000C82448344AAF188
:1000E0000107DA4501D100F04FF8AFF2090EBAE886
:1000F0000F0013F0010F18BFFB1A43F0010318475C
:1001000038950000589500000A444FF0000C10F894
:10011000013B13F0070408BF10F8014B1D1108BF85
:1001200010F8015B641E05D010F8016B641E01F825
:10013000016BF9D113F0080F1EBF10F8014BAD1C75
:100140000C1B09D16D1E58BF01F801CBFAD505E093
:1001500014F8016B01F8016B6D1EF9D59142D6D3ED
:10016000704700000023002400250026103A28BF15
:1001700078C1FBD8520728BF30C148BF0B60704719
:100180001FB51FBD10B510BD07F0FEF81146FFF7F3
:10019000F7FF00F0CCFA07F01CF903B4FFF7F2FF09
:1001A00003BC07F01DF900000948804709480047D3
:1001B000FEE7FEE7FEE7FEE7FEE7FEE7FEE7FEE717
:1001C000FEE7FEE704480549034A054B7047000077
:1001D00001030000CD00000020300010203200108C
:1001E0002030001070472DE9F0410446002600271A
:1001F00000BF084800686421B0FBF1F5284603F011
:10020000EDF90223044A0021AFF2270002F01CFEA0
:10021000BDE8F08100000010A819001010B50023FF
:100220001A461921184603F088FB10BD10B50022AC
:100230001921104603F0EAFD10BD10B50122192165
:10024000002003F0E3FD10BD002109E0002201E0E1
:1002500000BF521C44F2CE039A42F9D34B1C99B210
:100260008142F3DB7047002102E000BF4A1C91B2DB
:100270008142FADB70472DE9F04104460D461646EF
:100280001F4600BF681E40F25321484300F58078A6
:10029000701E062101FB00882FB106222146404630
:1002A00006F0B4FC04E006222146404606F0BEFCFF
:1002B0000120BDE8F08110B5431C02E010F8011BDD
:1002C00071B18107FAD14FF0013202C88C1A8C4308
:1002D00014EAC211F9D0C01A0A0603D0C01E10BD1C
:1002E000C01A10BD0A0401D0801E10BD0902FCD046
:1002F000401E10BD7047704770477047FFFFFFFFFB
:1003000000202021884A116000BF8749096811F048
:10031000400FFAD00321854A11604FF00001844A52
:10032000C2F8A811834A11604FF00101824A11609E
:100330008249834A11604FF00101A2F10402116069
:100340004FF0AA017F4A11604FF05501784AC2F878
:100350008C1079490968022906D000BF7A490968DA
:1003600011F0806FFAD004E0002000E0401C642807
:10037000FCD90321754A11604FF0AA016C4AC2F8FA
:100380008C104FF055016F4A11604FF02301704AF5
:1003900011604FF00101A2F1040211604FF0AA01B7
:1003A0006C4A11604FF05501116000BF6A4909683D
:1003B00011F4806FFAD00321684A11604FF0AA014E
:1003C0005B4AC2F8AC104FF05501624A11606449B3
:1003D000644A11604FF00001634A116043F23A0130
:1003E000534A1160704758480068C0F30160032801
:1003F00068D15148006810F0030006D0012823D0CE
:1004000002283FD003285CD100E000BF4E480068BE
:10041000C0F30E0000F101004FEA40014448D0F85B
:100420008800C0F3074000F10100B1FBF0F04F4934
:1004300000FB01F03D490968C9B201F10101B0FBBF
:10044000F1F04B4908603CE03F480068C0F30E0003
:1004500000F101004FEA40013548D0F88800C0F3B0
:10046000074000F10100B1FBF0F0424900FB01F050
:100470002E490968C9B201F10101B0FBF1F03C4914
:1004800008601EE030480068C0F30E0000F1010073
:100490004FEA40012648D0F88800C0F3074000F139
:1004A0000100B1FBF0F04FF4FA4100FB01F01F49ED
:1004B0000968C9B201F10101B0FBF1F02C490860F3
:1004C00000BF2FE01C48006810F0030006D0012890
:1004D00010D0022819D0032823D100E000BF134810
:1004E0000068C0B200F101002049B1FBF0F02049E2
:1004F000086016E00D480068C0B200F101001D4917
:10050000B1FBF0F01A4908600BE008480068C0B27F
:1005100000F101004FF4FA41B1FBF0F0144908601A
:1005200000BF00BF70470000A0C10F4004C10F40D2
:1005300000C00F40ACC10F400CC10F40630005006C
:1005400084C00F408CC00F4088C00F4080C00F4057
:10055000A4C00F40ACC00F40A8C00F40A0C00F40C7
:10056000DE872804C4C00F40C8C10F4000093D0009
:100570000000001000C0A80010B5002003F070FDBE
:10058000012003F06DFD022003F06AFD032003F05B
:1005900067FD03F0EAFD03F026FE03F011FF03F010
:1005A00030FFFFF73BFE06F0E2FA05F057FA4FF492
:1005B0007A70FFF749FE05F087FA05F0A6FA04F015
:1005C000BBF905F051FE002003F06DFE10BD10B523
:1005D00000231A460121184603F0AFF90022012139
:1005E000104603F013FC00231A461621012003F0E5
:1005F000A4F900221621012003F008FC00231A466A
:100600001946012003F099F900231A461C21012004
:1006100003F093F900231A461B21012003F08DF902
:1006200000231A461221012003F087F900231A46FD
:100630001721012003F081F9022300221B2110461B
:1006400003F07BF9022300221C21104603F075F908
:1006500000231A461946184603F06FF900231A467C
:100660001D21012003F069F900231A4619210120F8
:1006700003F063F9022300221E21104603F05DF906
:10068000022300221D21104603F057F900231A46C9
:100690001921032003F051F900231A461A210320DF
:1006A00003F04BF900220121104603F0AFFB0022BA
:1006B0001C21104603F0AAFB01221721104603F06B
:1006C000A5FB01221B21104603F0A0FB01221C21E7
:1006D000104603F09BFB00221921012003F096FB3A
:1006E00000221B21104603F091FB00231A46132120
:1006F000012003F022F901221321104603F086FBAA
:10070000002301220D21022003F017F900231A46CD
:100710000D21022003F011F900221146104603F0CA
:1007200075FB01221D21104603F070FB10BD00B5C2
:100730008BB0142106A806F075FD142101A806F05F
:1007400071FDFFF7DDFDFFF742FFFFF715FF00F03A
:100750003AFE0023044A1946044802F075FB00F0F3
:10076000D2FE00200BB000BDD4100010E701000045
:10077000FC48006808B900207047FA480168F94A47
:10078000C86810600020C8600861F7480088401CF5
:10079000F54A1080F5480088401EF44A108008464B
:1007A000EAE72DE9F05F06460F4690469946DDE9F7
:1007B0000AAB0C9DEE48007820B18B2028700020F9
:1007C000BDE8F09F00F05DFEFFF7D2FF04462CB9B4
:1007D00000F070FE862028700020F1E7012084F8E8
:1007E0002500A661E76184F82480C4F80490C4F869
:1007F00008A0C4F820B000F05DFE0020287020465C
:10080000DEE7002180F8251080F82410C1614161E5
:1008100041608160D7A1016200210161D14909686D
:10082000C160D0490860D0490988491ECE4A11806C
:10083000CE490988491CCD4A1180704730B5057DE5
:1008400005F00704CC4D05EBC4031D68854205D1B6
:10085000C168196039B100250D6104E00169C26801
:10086000CA6002B11161012580F825500025C560DC
:1008700005619D886D1E9D8030BD70B505460C4696
:100880002878642803D089202070002070BDB848E3
:10089000007818B18B2020700020F7E700F0F1FD00
:1008A00095F82500D8B101280FD002280ED00328D2
:1008B0001BD12846FFF7C2FF2846FFF7A2FF00F032
:1008C000F9FD002020700120E0E700BF2846FFF777
:1008D00098FF00F0EFFD002020700120D6E700F027
:1008E000E9FD872020700020D0E700F0E3FD8D2097
:1008F00020700020CAE72DE9F04105460E46144657
:100900002878642804D0892020700020BDE8F08178
:100910009748007818B1112020700020F6E700F009
:10092000B0FD95F8250098B1012804D0022803D025
:10093000032813D100BF00BF286A3060306800F080
:1009400043FA074600F0B6FD002020703846DDE788
:1009500000F0B0FD872020700020D7E700F0AAFD4E
:100960008D2020700020D1E770B504460D46207818
:10097000642803D089202870002070BD7C4800784E
:1009800018B18B2028700020F7E700F07AFD94F86A
:10099000250070B301280DD0022825D003282FD1BF
:1009A000764960690968461A00F084FD00202870C5
:1009B0003046E2E794F8240001280CD0022809D13F
:1009C000A06908B9E66900E0A66900F073FD00209F
:1009D000287006E000BFA66900F06CFD00202870BA
:1009E00000BF00BF3046C8E700F064FD002028705B
:1009F000C3E7FFE700F05EFD872028700020BCE71A
:100A000000F058FD8D2028700020B6E770B505462F
:100A10000C462878642803D089202070002070BDFF
:100A20005348007818B18B2020700020F7E700F0C1
:100A300028FD95F8256036B1012E05D0022E04D090
:100A4000032E06D102E000BF00BF00BF00202070CF
:100A500002E08D20207000BF00BF00F02BFD30466B
:100A6000DDE770B50B46032580F82550012B05D135
:100A7000424EC5693668354445610CE085692DB93B
:100A80003E4EC56936683544456104E03B4E856994
:100A9000366835444561057D05F00704364D05EBA4
:100AA000C4010D682DB908600025C56001258D8041
:100AB00006E00A680860C26010618D886D1C8D8038
:100AC0000025056170BD70B505460C462878642880
:100AD00003D089202070002070BD2548007818B10F
:100AE0008B2020700020F7E700F0CBFC95F8250064
:100AF000E8B1012810D002280FD003281DD12846C4
:100B0000FFF79CFE00212846FFF7ABFF00F0D2FC68
:100B1000002020700120DFE700BF00212846FFF7FA
:100B2000A0FF00F0C7FC002020700120D4E700F0F7
:100B3000C1FC872020700020CEE700F0BBFC8D2098
:100B400020700020C8E72DE9F04105460F46904689
:100B50001C462878642813D0892020700020BDE826
:100B6000F081000054000010460000104400001006
:100B7000100000103F000000782A0010480000100C
:100B80007748007818B18B2020700020E7E700F04C
:100B900078FC95F82500002832D001282AD00228B8
:100BA00027D0032832D12846FFF748FE00202070C6
:100BB000B7B1032F02D0042F13D108E06E681EB125
:100BC0002846A968B04701E08F2020700CE06E68CD
:100BD0001EB141462846B04701E08F20207003E057
:100BE00002E08420207000BF00BF00F063FC012001
:100BF000B5E700BF00F05EFC8E2020700120AEE75C
:100C000000F058FC872020700020A8E700F052FC7C
:100C10008D2020700020A2E710B55248006801F036
:100C2000CDFF0446204610BD08B500BF6A4600212E
:100C30004C48006801F010FF00F023FC4A480068AF
:100C4000401C494908600846007800F007084748FA
:100C500000EBC8073C681AE0E66843496069096828
:100C6000884213D12046FFF7E9FD94F824000228BA
:100C700004D101212046FFF7F4FE02E0022084F8AF
:100C80002500656815B12046A168A8473446002CA8
:100C9000E2D100F00FFCC9E700B587B003200021C6
:100CA0008022334BCDE90132CDE903104FF6FD70C0
:100CB0003D23304A0090304802F01DF906AA2FA1CA
:100CC0003D2002F088FA07B000BDF8B54FF420715E
:100CD0002E4800F006FB4021244800F002FB2B4C7C
:100CE00004F1280600250CE064202070002084F820
:100CF0002500E660AFF28410206228342836681C94
:100D000085B20F2DF0D364202070002084F82500D8
:100D1000E060AFF2A01020620020134908601C4977
:100D2000088010201B49088018481B4908600120D2
:100D300001F005FE19490860002001F000FE094994
:100D400008606A4616A11548006800F078F86A46FF
:100D500018A10448006800F072F8FFF79DFFF8BD85
:100D6000100000105000001048000010782A0010F9
:100D700078280010742A0010290C000075432F4FAA
:100D8000532D494920546D7200000000F8250010D1
:100D90004600001044000010540000104C000010E9
:100DA00075432F4F532D494920546D724C6F636B1F
:100DB0000000000075432F4F532D494920546D7298
:100DC0005369676E616C00000146002002E0491C17
:100DD000421CD0B20A78002AF9D170472DE9F041BF
:100DE00005460E4614460027FA48007820B1112027
:100DF00020700020BDE8F0812878012808D0022862
:100E000007D0032802D0042804D100E000BF00BFAF
:100E100000BF03E0012020700020EBE700BF06F0D8
:100E2000E5FA0746686930603068FFF7CDFF804615
:100E3000384606F0DFFA002020704046DAE72DE958
:100E4000F04105460E4614460027E248007818B1E6
:100E500012202070BDE8F0812878012808D00228EF
:100E600007D0032802D0042804D100E000BF00BF4F
:100E700000BF02E001202070ECE700BF06F0B6FAE8
:100E800007466E61384606F0B5FA0020207000BFB4
:100E9000E0E7F0B5024612F8384F95785678A2F19F
:100EA00038020B4618680FE000F10B073F5DB743AF
:100EB00000F10B0C0CF8047067463F5D17B9877A98
:100EC000AF4387721B1D18680028EDD1F0BDC249E1
:100ED000C24A1278885CC249095CBF4A515C01EB86
:100EE000C001C04A1170704710B5002406F07EFAA8
:100EF0000446B8480078F8B9BB480078E0B9FFF775
:100F0000E6FFBA48B749097850F82100B8490860A7
:100F1000B4480078B749097888420DD0B4480068D1
:100F2000C06B401CB2490968C863B3480068401CE4
:100F3000B149086006F071FA204606F05BFA10BD70
:100F400070B501460024AD4D2D68EC61AB4C2468B2
:100F500021620B4618681BE0A84C246894F83850AE
:100F600000F10B04645DA54D2D6895F839502C43B4
:100F7000A24D2D6895F8386000F10B05AC55847AC8
:100F80009E4D2D6895F83A502C4384721B1D1868AD
:100F90000028E1D1994C246894F83820904CA45C46
:100FA000964D2D6895F83950AC438D4DAC542C4678
:100FB000A45C44B9914C246894F83A50874C247846
:100FC000AC43864D2C7070BD2DE9FF4F83B0834636
:100FD0000E461546DDF84080002000903060D9466E
:100FE000D9F8004018E02078062807D2DFE800F0A2
:100FF0000604050307080AE009E008E000BF00BF97
:10100000012088F80000002007B0BDE8F08F00BF85
:1010100009F10409D9F80040002CE4D16D480078AA
:1010200020B1022088F800000020EDE76E4800782B
:1010300020B10D2088F800000020E5E706F0D6F981
:1010400000900020029082460190D946D9F80040D5
:101050005DE02078062849D2DFE800F048172A032F
:10106000494A208960B12089401E208110C6012094
:101070000290002001C50AF101001FFA80FA03E086
:10108000019840F0010001903CE0606858B1606850
:1010900001C50020606010C6012002900AF1010025
:1010A0001FFA80FA03E0019840F00200019029E065
:1010B0006768F88AA8B13969081D3861086801C5F0
:1010C000B9683869884201D178683861F88A401E69
:1010D000F88210C6012002900AF101001FFA80FA7E
:1010E00003E0019840F0040001900BE000BF00BF56
:1010F000009806F07FF900203060012088F8000099
:10110000504681E700BF09F10409D9F80040002CDE
:101110009FD10298012809D100203060009806F084
:1011200069F9002088F8000050466DE733480068F0
:1011300090F83400019941F0800108432F49096873
:1011400081F8340000202D49096881F835002B49C9
:101150000698096808635846FFF7F2FE009806F003
:1011600049F9FFF7C1FE06F041F9009023480068F5
:1011700090F8350020B101281BD0022818D100E0DA
:1011800000BF1E480068C4693CB110C60020306032
:101190000AF101001FFA80FA09E0012017490968E5
:1011A00081F83500594615480068FFF772FE06E0E1
:1011B00000BF594611480068FFF76BFE00BF00BF33
:1011C0000E48006890F83500D0B1012841D00228BF
:1011D0003ED137E010000010AE9300001400001064
:1011E000150000101300001011000010E81C001082
:1011F0002C00001012000010040000102400001049
:10120000207806280DD2DFE800F00C0607030D0E4B
:10121000002001C511E000BFFD480068406A01C51B
:101220000BE000BF00BF009806F0E4F8002030603B
:10123000012088F800005046E6E600BF002088F84C
:1012400000000CE0002001C50E2088F8000006E038
:1012500000BF002001C50A2088F8000000BF00BFC1
:101260000020EB49096881F83400E949096881F8F0
:101270003500E7490968C861E54909680862E44939
:1012800009684862009806F0B5F85046BCE60024AC
:1012900000BF06F0ABF80446DE480068401CDD499C
:1012A0000860204606F0A6F802F027F9F1E700B53D
:1012B00087B0032000218022D74BCDE90132CDE950
:1012C00003104FF6FF703F23D44A0090AFF2410065
:1012D00001F011FE06AAD2A13F2001F07CFF07B069
:1012E00000BD04E0002200F8012B4A1E91B2002943
:1012F000F8D1704730B5F021CD48FFF7F2FFCC4B65
:1013000003F11805002408E0002018705D60C9A0F2
:10131000586118331835601C84B2092CF4D30020AE
:1013200018705860C3A05861C148C349086030BDF7
:1013300030B54FF4E761C148FFF7D3FF4FF4807138
:10134000BF48FFF7CEFFBD4B03F15805002406E070
:101350005D61B8A0186558335835601CC4B2142CB0
:10136000F6D300205861B3A018650020B549086085
:10137000B248B549086030BD0022B44B1A70B44978
:10138000002004E0002201F8012B421CD0B2082802
:10139000F8D30022AF4B1A70AF4B1A70AF4B1A60E4
:1013A0009B4B1A6070470020AD490860AD4908703A
:1013B000AD490870AD490870AD490870AD49086085
:1013C00094490860704710B502F090F8FFF7EBFF02
:1013D000FFF7D2FFFFF7ACFFFFF78CFF00F097FE9F
:1013E00000F07FFF01F07BFAFFF761FFFFF76DFC74
:1013F00002F080F810BD9E480078012808D1994875
:101400000078FF2804D297480078401C954908705E
:10141000704710B5002496480078012830D105F0B7
:10142000E5FF04468F48007820B18E480078401EC2
:101430008C4908708B480078F8B98B480078E0B97F
:10144000FFF745FD7E488449097850F8210083491B
:101450000860814800787F49097888420DD07F482C
:101460000068C06B401C7D490968C86381480068FA
:10147000401C8049086005F0D5FF204605F0BAFF02
:1014800010BD10B500247A480078012811D105F06C
:10149000ADFF04467348007840B973480078FF28D0
:1014A00004D271480078401C6F490870204605F04E
:1014B000A1FF10BD10B500246D480078012821D18E
:1014C00005F094FF044668480078C0B1664800788B
:1014D000401E654908700846007860B96148007888
:1014E00028B9204605F086FFFFF7FEFC0AE02046FB
:1014F00005F080FF06E0204605F07CFF02E0204674
:1015000005F078FF10BD10B55948007890B9FFF785
:10151000DEFC514800784F49087049484E49097827
:1015200050F821004D4908600846006838490860B5
:1015300005F063FF10BD70B5002602F02FF805F02E
:1015400055FF064646480068401C4549086030463D
:1015500005F050FF46480078012857D146480078EA
:1015600020B1012804D0022809D103E001250BE0B5
:10157000002509E0012501203F49087004E001250C
:1015800000203D49087000BF00BF05B970BD2D485F
:10159000046837E005F02AFF0646206B70B3206B25
:1015A000401E2063206B48BB94F8340010F0370FC6
:1015B00009D014F8340F20F037002070012060703B
:1015C000A4F1340402E0002084F8350094F83400DB
:1015D00010F0080F12D104F13804A0781B490978E3
:1015E00040EA01001949087020781949085C6178BF
:1015F00040EA010014F83819154A5054646930461D
:1016000005F0F8FE94F836003F28C3D100BFBDE7CF
:101610002400001020000010E81A0010E41C001044
:1016200075432F4F532D49492049646C65000000D4
:10163000A81900103F00000008000010E81D00106D
:10164000E81C0010300000102800001014000010EA
:101650001500001012000010130000102C000010E4
:101660004000001010000010110000101E000010BB
:101670001D000010040000103400001040F2211082
:101680007047704710B590F8382001F10B039B5C50
:1016900090F83940A34301F10B04A35423469B5C0B
:1016A00023B98B7A90F83A40A3438B7210BD2DE991
:1016B000F04F05460F4690469946A87A9C490E5C25
:1016C00005F10B00805D11F800B00BEBC60000F0D7
:1016D000FF0A984850F82A40002004F12404E060F2
:1016E0002760207C20EA0800207484F81190207C78
:1016F000A4F1240410F0080F0DD194F83A008E499B
:10170000097808438C4908708C48805D94F839103A
:1017100008438A49885529462046FFF7B3FF206AC7
:1017200020B12046216AFFF7B4FBE5615046BDE8D1
:10173000F08F10B5824A1268D061814A126892F81F
:10174000383000F10B02D25C7D4B1B6893F83930C6
:101750001A437B4B1B6893F8384000F10B031A5572
:10176000827A774B1B6893F83A301A438272744A34
:10177000126892F83810714A525C714B1B6893F8EA
:1017800039309A436D4B5A541A46525C42B96C4AEE
:10179000126892F83A30684A12789A43664B1A7087
:1017A00010BD0023837200F10B01002204E000232E
:1017B00001F8013B531CDAB2082AF8D3704705E060
:1017C00011F8013B00F8013B531E9AB2002AF7D1F1
:1017D00070477CB5002514E06946284601F07CFD81
:1017E000064666B9534850F8254044B1012C06D04E
:1017F000D4E9020100EB8100A0640198E064681C58
:10180000C5B23F2DE8D97CBD2DE9F84F05460F46FE
:1018100090469946DDE90AAB0020009005F0E6FD10
:10182000009048480468002C7DD004F11C0454F852
:10183000080C44490860009805F0DCFD44F81C7C65
:10184000A576002020766076606144F818BC44F8E4
:1018500010AC44F8148C0C9824F80C0C24F80A9C56
:101860000020E077E810207705F00700E076217F80
:1018700001208840A077E17E012088406077002029
:1018800020606060E060A0602062A0626062E06250
:101890002063AFF260206063A4F11C044FF00006E7
:1018A00006E0002104F1540040F82610701CC6B276
:1018B000002EF6D0204601F070FE204601F01BFEFF
:1018C00005F094FD00901B4840F825401E48006834
:1018D00060610020A0611C48006810B11A480068CF
:1018E00084611948046004F13804A0781249097829
:1018F00040EA01001049087020781049085C6178BE
:1019000040EA010014F838190C4A50540F48007886
:1019100000F101000D490870009805F06BFD0020F2
:10192000BDE8F88FFFE7009805F064FD4220F7E777
:10193000AE930000E81C0010140000101500001009
:101940002400001028000010300000101E000010BD
:101950002DE9F05F04460F4691461E464FF0000BFE
:101960002078052804D0012030700020BDE8F09FC9
:1019700009F0800ABAF1000F04D029F080094FF075
:10198000010801E04FF000080020307005F02EFD46
:101990008346B9F1000F2CD0B9F1010F3BD0B9F15A
:1019A000020F03D0B9F1030F46D111E0208900EAFC
:1019B0000705BD4206D1B8F1010F05D12089A84322
:1019C000208101E070203070584605F013FD3AE0A8
:1019D000208900EA070535B1B8F1010F05D120894A
:1019E000A843208101E070203070584605F002FDC8
:1019F00029E0208927EA0005BD4206D1B8F1010F90
:101A000005D120892843208101E07020307058469C
:101A100005F0F0FC17E0208927EA000535B1B8F1A0
:101A2000010F05D120892843208101E0702030700A
:101A3000584605F0DFFC06E0584605F0DBFC0025C3
:101A40006F20307000BF00BF28468FE72DE9F041BE
:101A500006460D460027FD48007820B1102028706A
:101A60000020BDE8F08105F0C1FC0746F848046895
:101A700084B100684068F64908600520207026811E
:101A800000206060F3A0E060384605F0B3FC002061
:101A9000287004E0384605F0ADFC7220287020461E
:101AA000DFE730B501464A6808682AB9CC6860604B
:101AB00028B10025456002E0106000B142608B68EB
:101AC00000259D6230BDF0B506460F46B468002083
:101AD00004F12C0460602780207A20F0200020721E
:101AE0004FF000006072207AA4F12C04A8B904F130
:101AF0003804A078D849097840EA0100D64908702E
:101B00002078D649085C617840EA010014F8381959
:101B1000D24A50544FF0010500E000253046FFF74F
:101B2000C0FF2846F0BD2DE9F0470446894615461A
:101B30004FF0000AC548007820B10F2028702046D9
:101B4000BDE8F0872078052803D0012028702046C2
:101B5000F6E705F04BFC8246606808B1012700E01B
:101B60000027B9F1000F03D0B9F1010F3CD119E002
:101B70008FB9B8A0E06000202070B54800686060B0
:101B800000202081B2480460504605F033FC00205C
:101B90002870002605E0504605F02CFC49202870EE
:101BA000264628E0D4F8048005E000214046FFF7EF
:101BB0008AFFD8F80080B8F1000FF6D1A5A0E06048
:101BC00000202070A2480068606000202081A048AA
:101BD0000460504605F00EFC012F01D1FFF784F997
:101BE00000202870002606E0504605F003FC072080
:101BF0002870264600BF00BF3046A1E72DE9F0411E
:101C000005460E46144600279048007820B1112062
:101C100020700020BDE8F08105F0E8FB0746287839
:101C2000052806D0384605F0E5FB0120207000208D
:101C3000F0E7E86830603068FFF7C6F8804638465D
:101C400005F0D8FB002020704046E3E72DE9F04185
:101C500005460E46144600277C48007818B112202D
:101C60002070BDE8F08105F0C1FB07462878052803
:101C700005D0384605F0BEFB01202070F1E7EE608C
:101C8000384605F0B7FB0020207000BFE9E7F0B54B
:101C90001446059E724F3F6897F8347047F020074E
:101CA000DFF8BCC1DCF800C08CF834700027DFF826
:101CB000B0C1DCF800C08CF83570694F3F683E63F6
:101CC000674F3F68B9620C828B74654F3F688F60C5
:101CD00047680F6000274F60C860456805B16960BC
:101CE00041605F4F3F6897F838205C4FBF5CDFF87A
:101CF00070C1DCF800C09CF839C027EA0C07DFF897
:101D00005CC10CF802706746BF5C5FB9544F3F6816
:101D100097F83AC0504F3F7827EA0C07DFF838C1F0
:101D20008CF80070F0BD2DE9F04F89B005460F46E4
:101D300091469A46129E002002904448007828B1AD
:101D400002203070002009B0BDE8F08F45480078CF
:101D500018B10D2030700020F5E72878052803D051
:101D6000012030700020EEE709F0800BBBF1000F7E
:101D700004D029F080094FF0010801E04FF000087D
:101D800005F034FB0290B9F1000F4AD0B9F1010F10
:101D900078D0B9F1020F03D0B9F1030F71D120E06F
:101DA000288900EA0704BC420FD1B8F1010F02D123
:101DB0002889A04328812A4800688485029805F074
:101DC00019FB002030702046BDE74B463A4604A977
:101DD0002846CDF800A0FFF75AFF029805F00AFB4D
:101DE00078E0288900EA07047CB1B8F1010F02D13C
:101DF0002889A04328811A4800688485029805F044
:101E0000F9FA0020307020469DE74B463A4604A977
:101E10002846CDF800A0FFF73AFF029805F0EAFA4D
:101E200058E0288927EA0004BC421ED1B8F1010F0E
:101E300002D12889204328810948006884850298B6
:101E400005F0D8FA0020307020467CE71000001022
:101E50000C0000103F0000001400001015000010DE
:101E600024000010110000100CE04B463A4604A973
:101E70002846CDF800A0FFF70AFF029805F0BAFA4D
:101E800028E01FE0288927EA00047CB1B8F1010F9F
:101E900002D1288920432881AD48006884850298B2
:101EA00005F0A8FA0020307020464CE74B463A4631
:101EB00004A92846CDF800A0FFF7E9FE029805F036
:101EC00099FA07E0029805F095FA00246F20307027
:101ED000204638E700BFFFF707F805F087FA0290C1
:101EE0009B48006890F8350020B39948006890F846
:101EF0003500039000209649096881F8350004A850
:101F0000FFF7CFFD00209249096881F8340002985C
:101F100005F070FA00240398012805D0022802D1A8
:101F20000E20307003E000BF0A20307000BF00BFF9
:101F3000204608E786480068848DB8F1010F1ED15D
:101F4000B9F1000F0ED0B9F1010F0CD0B9F1020FA9
:101F500003D0B9F1030F0AD100E000BF2889A043E4
:101F600028810BE000BF28892043288106E00298E1
:101F700005F040FA6F2030700020E4E600BF0298C0
:101F800005F038FA002030702046DCE670B50025F8
:101F900005F02CFA05466E480068848D284605F049
:101FA00029FA204670BD2DE9FC5F04468946924619
:101FB0001E46002000902078052804D001203070B3
:101FC0000020BDE8FC9F05F011FA0090BAF1000F67
:101FD00003D0BAF1010F0AD104E0208920EA0900F8
:101FE00020810BE0208940EA0900208106E000986A
:101FF00005F000FA712030700020E2E700BF4FF0DA
:10200000000B656855E0A87C40B3012838D0022851
:1020100002D0032844D111E02089298A00EA01076F
:10202000288AB84209D139462846FFF74CFD804638
:10203000B8F1010F01D14FF0010B38E02089298A56
:1020400000EA01074FB139462846FFF73CFD8046BC
:10205000B8F1010F01D14FF0010B28E0288A218946
:1020600020EA0107288AB84209D139462846FFF7F5
:102070002AFD8046B8F1010F01D14FF0010B16E0A7
:10208000288A218920EA01074FB139462846FFF7FF
:102090001AFD8046B8F1010F01D14FF0010B06E0A7
:1020A000009805F0A7F96F203070002089E700BF85
:1020B0002D68002DA7D1009805F09CF9BBF1010F08
:1020C00001D1FEF711FF05F091F9009020890190F0
:1020D000009805F08FF900203070019871E72DE924
:1020E000F04104460D4600272078052804D0012041
:1020F00028700020BDE8F08105F078F907462689B0
:10210000384605F077F9002028703046F2E770B5C0
:1021100050211048FFF7E5F80E4C04F11006002599
:1021200009E0002020706660AFF2D820E060103433
:102130001036681C85B2042DF3D300202070606037
:10214000AFF2F020E06003480349086070BD000072
:1021500024000010981A00100C0000102DE9F84F10
:1021600005460F4690469A460020009005F03EF93D
:1021700000906B480468006820B1694800684068B6
:1021800067490860009805F035F92CB95A208AF89B
:1021900000000020BDE8F88F2E4605EB08094FF03F
:1021A000000B05E0C6F800904E46C1440BF1010B50
:1021B000781E5845F6D8002030602560656027619C
:1021C000E760C4F808808AF800002046E2E72DE9BD
:1021D000F04104460D46002705F008F9074620693E
:1021E00068B16668306860602069401E20613846CA
:1021F00005F000F9002028703046BDE8F08138462F
:1022000005F0F8F85D2028700020F6E72DE9F04190
:1022100006460C46154600274248007820B111209A
:1022200028700020BDE8F08105F0E0F807467069ED
:1022300020602068FEF7C8FD8046384605F0DAF8D1
:10224000002028704046EDE72DE9F04105460E4696
:10225000144600273348007818B112202070BDE8DA
:10226000F08105F0C3F807466E61384605F0C2F804
:102270000020207000BFF2E770B504460D4600262E
:1022800005F0B4F80646D4E90310884204D330467A
:1022900005F0B0F85E2070BD606828606560206958
:1022A000401C2061304605F0A5F80020F3E770B52A
:1022B00005460C46002605F099F806462868206079
:1022C00068686060A868A060E868E06028692061CC
:1022D000304605F08FF8D4E90301401A6061002010
:1022E00070BD70B578211048FEF7FBFF0E4C00253D
:1022F0000BE0681C00EB40000B4901EBC000606084
:102300000AA060611834681C85B2042DF1D3002046
:10231000606006A0606104480149086070BD00006B
:102320003800001010000010202500103F000000B1
:102330002DE9F04106460D464FF00008307802289E
:1023400004D0012028700020BDE8F08105F04EF88F
:1023500080467468E08A78B12169081D20610F68A1
:10236000E08A401EE082A1682069884201D160684D
:1023700020610020287002E01F20287000274046BE
:1023800005F038F83846DFE72DE9F04106460F46FC
:102390004FF00008F748007810B10020BDE8F08148
:1023A00005F024F88046F4480468006820B1F2483B
:1023B00000684068F0490860404605F01BF8FCB131
:1023C00005F014F88046ED480568D5B1006800684E
:1023D000EA490860404605F00DF86E6006EB87009C
:1023E000A860EE602E61AF820020E882022020709B
:1023F000002020816560E2A060612046FFF7D1F9EE
:1024000008E0DD4800686060DB480460404604F096
:10241000F1FF00242046C1E72DE9F0470446894634
:1024200015464FF0000A2078022804D001202870B9
:102430002046BDE8F087CF48007818B10F202870FB
:102440002046F6E704F0D2FF8246A07A10B14FF0A2
:10245000010801E04FF00008B9F1000F03D0B9F115
:10246000010F49D121E0B8F1000F17D1C4A060617C
:102470006668C24800683060C0480660002020706E
:10248000BD480068606000202081BB480460504661
:1024900004F0B0FF00202870002705E0504604F04B
:1024A000A9FF4920287027462DE005E000230422DB
:1024B00019462046FFF7FBF8A07A0028F6D1B0A015
:1024C00060616668AD4800683060AC480660002016
:1024D0002070A9480068606000202081A648046040
:1024E000504604F087FFB8F1010F01D1FEF7FCFC64
:1024F00000202870002706E0504604F07BFF0720EC
:102500002870274600BF00BF384692E770B50546E1
:10251000002604F06BFF06466C686068E060606847
:1025200020610020E082304604F064FF002070BD8E
:102530002DE9F0470746884615464FF000093878E0
:10254000022804D0012028700020BDE8F0878948C7
:10255000007818B1022028700020F6E7894800783A
:1025600018B10D2028700020EFE704F03FFF8146EE
:102570007C68E08A98B12169081D20610E68E08AB4
:10258000401EE082A1682069884201D16068206114
:10259000484604F02FFF002028703046D5E77A48DF
:1025A000006890F8340040F004007749096881F829
:1025B000340000207449096881F8350072480068C9
:1025C000C0F830803846FFF7B4F8484604F012FFF0
:1025D000FEF78AFC04F00AFF81466B48006890F819
:1025E000350020B101280DD002280AD105E0664847
:1025F0000068466A002028700DE000260E20287032
:1026000009E000BF394660480068FFF73BF8002644
:102610000A20287000BF00BF00205B49096881F8CC
:1026200034005949096881F8350057490968C8617B
:10263000554909680862544909684862484604F0E7
:10264000D9FE304681E72DE9F04104460F46154694
:102650004FF000082078022804D0012028700020C4
:10266000BDE8F08104F0C2FE8046A07A20B30026C7
:102670007FB1012F0CD107E0022304220021204664
:10268000FFF715F8701CC6B2A07A0028F4D109E053
:1026900000BF0223042200212046FFF708F8701C27
:1026A000C6B200BF00BF404604F0A4FEFEF71CFC0B
:1026B0000E2028703046D3E7404604F09BFE0020F1
:1026C000287000BFCCE72DE9F04105460E460027F3
:1026D0002878022802D00120BDE8F08104F086FEAF
:1026E0000746A87A60B10023042231462846FEF747
:1026F000DEFF384604F07EFEFEF7F6FB0020EBE737
:102700006C68E08AA18A884204DB384604F072FED5
:102710001E20E1E7E168081DE0600E60E08A401CD1
:10272000E082D4E90210884201D16068E060384656
:1027300004F060FE0020CFE72DE9F04105460E468B
:1027400000272878022802D00120BDE8F08104F09B
:102750004DFE0746A87AC8B1002304223146284618
:10276000FEF7A5FF384604F045FEFEF7BDFB00204E
:10277000EBE7000010000010080000103C00001003
:102780003F00000011000010240000106C68E08A77
:10279000A18A884204DB384604F02CFE1E20D4E7D0
:1027A00061682069884201D1A06820612069001F0A
:1027B000206120690660E08A401CE082384604F00F
:1027C00019FE0020C1E72DE9F04105460F461646E7
:1027D0004FF000082878022802D00120BDE8F081DF
:1027E00004F004FE8046A87AE8B116F0010F0AD082
:1027F00005E00023042239462846FEF758FFA87A50
:102800000028F6D105E00023042239462846FEF7C9
:102810004EFF404604F0EEFD16F0040F01D1FEF726
:1028200063FB0020DAE76C68E08AA18A884204DB57
:10283000404604F0DFFD1E20D0E716F0020F0BD05B
:1028400061682069884201D1A06820612069001F69
:1028500020612069076009E0E168081DE0600F6001
:10286000D4E90210884201D16068E060E08A401C2F
:10287000E082404604F0BEFD0020AFE72DE9F047BE
:1028800005460C464FF0000A2878022802D00120A5
:10289000BDE8F08704F0AAFD8246A87A207405F10D
:1028A0000B0804F10809002705E018F8010B09F8E6
:1028B000010B781CC7B2082FF7D36E68F08A18B1E5
:1028C00030690068206001E000202060F08AA0806C
:1028D000B08AE080504604F08DFD0020D8E770B546
:1028E00060210A48FEF7FDFC084C04F1180600259B
:1028F00004E0266018341836681C85B2032DF8D31E
:102900000020206001480249086070BD9825001031
:102910003C00001070B5044600262078032801D042
:10292000002070BD04F062FD0646258915B120899E
:10293000401E2081304604F05DFD2846F1E770B569
:1029400005460026D848007808B1002070BD04F084
:102950004DFD0646D5480468006820B1D34800689C
:102960004068D2490860304604F044FD4CB1032071
:102970002070258100206060CDA060612046FEF7B8
:1029800010FF2046E2E72DE9F04704468846154649
:102990004FF000092078032804D001202870204639
:1029A000BDE8F087C048007818B10F202870204695
:1029B000F6E704F01BFD8146A07A08B1012700E08C
:1029C0000027B8F1000F03D0B8F1010F3AD119E098
:1029D0008FB9B7A0606100202070B44800686060C3
:1029E00000202081B1480460484604F003FD002027
:1029F0002870002605E0484604F0FCFC49202870B9
:102A0000264626E005E00023012219462046FEF76F
:102A10004EFEA07A0028F6D1A5A0606100202070AB
:102A2000A2480068606000202081A04804604846F9
:102A300004F0E0FC012F01D1FEF756FA00202870C7
:102A4000002606E0484604F0D5FC072028702646FC
:102A500000BF00BF3046A3E72DE9F04105460E4612
:102A6000144600272878032803D001202070BDE8F1
:102A7000F0818D48007810B102202070F7E78D4872
:102A8000007810B10D202070F1E704F0AFFC07468C
:102A9000288940B12889401E2881384604F0AAFCC4
:102AA00000202070E3E78448006890F8340040F08C
:102AB00001008149096881F8340000207E490968D5
:102AC00081F835007C48006806632846FEF731FE31
:102AD000384604F08FFCFEF707FA04F087FC07463F
:102AE0007548006890F8350020B1012809D0022807
:102AF00006D102E0002020700BE00E20207008E0DC
:102B000000BF29466C480068FEF7BCFD0A20207013
:102B100000BF00BF00206849096881F83400664999
:102B2000096881F8350064490968C8616249096823
:102B30000862384604F05EFC00BF98E72DE9F041DA
:102B400004460F4615464FF000082078032804D0AD
:102B5000012028700020BDE8F08104F047FC804689
:102B6000A07A20B300267FB1012F0CD107E0022309
:102B7000012200212046FEF79AFD701CC6B2A07A01
:102B80000028F4D109E000BF0223012200212046E1
:102B9000FEF78DFD701CC6B200BF00BF404604F0BA
:102BA00029FCFEF7A1F90E2028703046D3E74046F5
:102BB00004F020FC0020287000BFCCE770B504466C
:102BC00000252078032801D0012070BD04F00EFC00
:102BD0000546A07A60B10023012219462046FEF77F
:102BE00066FD284604F006FCFEF77EF90020ECE7BF
:102BF00020894FF6FF71884207D22089401C20812E
:102C0000284604F0F7FB0020DFE7284604F0F2FB3B
:102C10003220DAE72DE9F04704460D464FF000096F
:102C20002078032802D00120BDE8F08704F0DEFB05
:102C30008146A07AA87204F10B07AE1C4FF0000881
:102C400007E017F8010B06F8010B08F1010000F08E
:102C5000FF08B8F1080FF4D320892880484604F013
:102C6000C9FB0020E0E72DE9F04104460E46154679
:102C700000272078032803D001202870BDE8F081C8
:102C800004F0B4FB074600202870208908B1268193
:102C900005E0A07A08B9268101E04920287038466D
:102CA00004F0A8FB00BFE9E71000001008000010C6
:102CB0003F00000011000010240000102DE9F34F28
:102CC00085B088460020019004F090FB0190FE48FA
:102CD00050F8280030B1019804F08CFB282007B090
:102CE000BDE8F08F0598FF2804D1F848006890F8F7
:102CF00036000590F449059851F8205025B90198FF
:102D000004F078FB2920EAE7012D04D1019804F0B2
:102D100071FB4320E3E74FEAE80708F00700039060
:102D20000120B84000F0FF0901210398814001F023
:102D3000FF0A0021E44A059842F82010104640F8A6
:102D4000285095F8386095F83A00029095F839B017
:102D5000DF48805D10EA0B0F1AD0DD48805D20EA65
:102D60000B00DB4988550846805D28B9D9480078B2
:102D700002998843D7490870D648007840EA09008C
:102D8000D4490870D248C05D40EA0A00D049C8550D
:102D9000EC69D4B104F10B00805D20EA0B0004F172
:102DA0000B0188550846805D18B9A07A02998843BE
:102DB000A072A07A40EA0900A07204F10B00C05D85
:102DC00040EA0A0004F10B01C855286A30B3286AAA
:102DD0000490049804681FE004F10B00805D20EA71
:102DE0000B0004F10B0188550846805D18B9A07AE4
:102DF00002998843A072A07A40EA0900A07204F107
:102E00000B00C05D40EA0A0004F10B01C8550498AC
:102E1000001D049004980468002CDDD185F83680EC
:102E200085F83870039885F8370085F83A9085F86A
:102E300039A0019804F0DEFAA7480078012801D1F2
:102E4000FEF752F800204AE72DE9FE4F06460F46EE
:102E500090461C464FF0000904F0C8FA81469F488E
:102E6000007828B1484604F0C5FA3C20BDE8FE8F42
:102E7000954850F8240060BB0120934941F8240094
:102E8000484604F0B7FA002342463946304600F07F
:102E900037FB8246002000900190034602465146CF
:102EA00002902046FEF7B0FC054635B98A48007806
:102EB00001280CD1FEF718F809E004F097FA8146D2
:102EC0000020814941F82400484604F093FA28463E
:102ED000CCE7484604F08EFA2820C7E712F0010F2D
:102EE00008D012F0020F05D002E0491E002308C0EE
:102EF0000029FAD170472DE9F04F85B081468A4606
:102F000093461C46DDE90F78129D0020039004F0E3
:102F10006DFA03907148007830B1039804F06AFAB2
:102F20003C2005B0BDE8F08F674850F8240088BB0E
:102F30000120654941F82400039804F05BFA2A4611
:102F400041463846FFF7CAFF2B465A465146484687
:102F500000F0D6FA04901198CDE9008002953A4627
:102F600020460E9B0499FEF74FFC064636B95A4898
:102F7000007801280CD1FDF7B7FF09E004F036FA1C
:102F800003900020504941F82400039804F032FADD
:102F90003046C6E7FFE7039804F02CFA2820C0E784
:102FA0002DE9F041054600274C48007810B140203B
:102FB000BDE8F0813F2D01D13E20F9E704F016FA7B
:102FC0000746FF2D03D14148006890F836503E482F
:102FD00050F8254024B9384604F00CFA4320E7E7BE
:102FE000012C04D1384604F005FA3D20E0E714F83E
:102FF000380F3749085C617888432178344A505447
:1030000014F838091146085C30B994F83A10314880
:10301000007888432F490870E06918B12046E169BB
:10302000FEF730FB206A18B12046216AFDF731FF18
:10303000A66A16B13046FEF734FD0020206384F8FE
:10304000340084F8350026480078FF2804D224484C
:103050000078401C22490870384604F0CBF9FEF78E
:1030600010FB04F0C3F907461D48007820B11C4846
:103070000078401E1A490870204600F03DFA1948B1
:103080000078401E1749087000200F4941F82500BC
:10309000A06930B9002061698861134960690860DE
:1030A00005E0D4E905014861D4E9051088610F48BD
:1030B000006860610D4804600DA02065384604F08A
:1030C00099F90548007815E0E81C0010240000106C
:1030D00015000010140000101D000010100000105A
:1030E000110000101E000010300000102800001019
:1030F0003F000000012801D1FDF7F6FE002057E750
:103100002DE9F041044600273F2C02D13E20BDE8C6
:10311000F081FF2C0BD104F069F90746ED480068F7
:1031200090F83B60384604F065F93046EFE704F06C
:103130005DF90746E84850F8245025B9384604F0B0
:1031400059F94320E3E7012D04D1384604F052F940
:103150003D20DCE73F2085F83B00384604F04AF983
:103160000020D4E72DE9F04706460F4614464FF0FD
:103170000008DA48007820B1112020700020BDE856
:10318000F08704F033F98046FF2E03D1D148006860
:1031900090F83660D04850F8265035B9404604F0D3
:1031A00029F9432020700020E9E7012D06D140468F
:1031B00004F020F9432020700020E0E7286D3860FB
:1031C0003868FDF701FE8146404604F013F90020FF
:1031D00020704846D3E72DE9F04106460F461446D5
:1031E0004FF00008BD48007818B112202070BDE8EB
:1031F000F08104F0FBF88046FF2E03D1B54800684B
:1032000090F83660B44850F826502DB9404604F086
:10321000F1F843202070EAE7012D05D1404604F083
:10322000E9F843202070E2E72F65404604F0E2F819
:103230000020207000BFDAE770B50546002604F0D4
:10324000D5F80646A44850F8254024B9304604F085
:10325000D1F8462070BD012C04D1304604F0CAF8E4
:103260004320F7E794F8340010F0080F2FD014F83B
:10327000340F20F00800207014F8340910BB206BC4
:10328000E0B904F13804A0789549097840EA0100D2
:103290009349087020789349085C617840EA0100FE
:1032A00014F838198F4A5054304604F0A3F88E4869
:1032B0000078012809D1FDF717FE06E0304604F03A
:1032C00099F802E0304604F095F80020C2E7304655
:1032D00004F090F84420BDE72DE9F04707460D467D
:1032E0004FF0000A00202860686004F07FF88246F2
:1032F000FF2F03D17748006890F83670764850F871
:1033000027402CB9504604F075F84320BDE8F087FB
:10331000012C04D1504604F06DF84320F6E7207CE0
:1033200010F0010F04D1504604F064F84520EDE799
:103330000026D4F80C90D4F80880504604F05AF8CF
:1033400000E0761C58F8041B0029FAD0B000286071
:10335000A9EB0600800068600020D7E72DE9F04166
:1033600005464FF0000804F041F88046FF2D05D1D6
:103370005848006890F83650012608E05548006823
:1033800090F83600A84201D1012600E000265248FC
:1033900050F825402CB9404604F02CF84820BDE8F0
:1033A000F081012C04D1404604F024F84320F6E7D4
:1033B00094F838704B48C05D94F8391088434949F7
:1033C000C8550846C05D30B994F83A1044480078B2
:1033D00088434349087094F8340040F0080084F8AA
:1033E0003400404604F006F8012E01D1FDF77CFDC3
:1033F0000020D4E72DE9F04105460E46002703F0F2
:10340000F5FF0746FF2D03D13248006890F836508B
:10341000314850F825402CB9384603F0EBFF2920FD
:10342000BDE8F081012C04D1384603F0E3FF4320CE
:10343000F6E7582221463046FEF7C1F9384603F038
:10344000D9FF0020ECE72DE9F04704460E46174669
:103450004FF0000903F0CAFF8146FF2C02D11D483E
:10346000056802E01C4850F8245005F1540050F85B
:103470002680484603F0BEFF002038704046BDE875
:10348000F0872DE9F04704460E46174698464FF060
:10349000000903F0ABFF8146FF2C02D10D480568FF
:1034A00002E00D4850F8245005F1540040F8267011
:1034B000484603F09FFF002088F80000BDE8F08731
:1034C00010B50448006800F019F8FF20FFF768FD08
:1034D00010BD000024000010E81C001010000010B7
:1034E00014000010150000101D00001000204649B7
:1034F0000880704770477047704770477047704743
:1035000070B5044610464FF080750560051F2846CB
:103510002C603E4E051F28462E604FF01236051FC8
:1035200028462E604FF00336051F28462E604FF0C8
:103530000236051F28462E607610051F28462E608D
:10354000051F284629604FF01136051F28462E60BA
:103550004FF01036051F28462E604FF00936051F24
:1035600028462E604FF00836051F28462E604FF083
:103570000736051F28462E604FF00636051F2846E1
:103580002E604FF00536051F28462E604FF004369A
:10359000051F28462E6070BD7047704710B51A4849
:1035A0000088401C1849088008460088642803D316
:1035B00000200880FDF730FB10BD10B503F016FFAA
:1035C000044613480078401C11490870204603F057
:1035D00011FFFDF7B0FFFDF71CFF10BD411E4FF0BE
:1035E000E0225161FF210B4A11704FF0E02109697F
:1035F00041F005014FF0E02211611146096941F0E7
:10360000020111617047000058000010C134000031
:103610001000001023ED00E002460120052A7DD2B3
:10362000DFE802F00337678691001F292DD2DFE81B
:1036300001F0101112131415161718191A1B2C2C3F
:103640002C1C1D1E1F202122232425262728292A41
:103650002B0000BF00BF00BF00BF00BF00BF00BF06
:1036600000BF00BF00BF00BF00BF00BF00BF00BF62
:1036700000BF00BF00BF00BF00BF00BF00BF00BF52
:1036800000BF00BF00BF00BF01E0002000BF00BFBF
:1036900066E0202929D2DFE801F01011282812283D
:1036A0002828131415282828161718191A1B1C1D4A
:1036B0001E1F202122232425262700BF00BF00BF74
:1036C00000BF00BF00BF00BF00BF00BF00BF00BF02
:1036D00000BF00BF00BF00BF00BF00BF00BF00BFF2
:1036E00000BF00BF00BF00BF01E0002000BF00BF5F
:1036F00036E00E2918D2DFE801F00708090A0B0CA2
:103700000D0E0F101314151600BF00BF00BF00BF31
:1037100000BF00BF00BF00BF00BF00E01EE000BF51
:1037200000BF00BF00BF01E0002000BF00BF17E0E6
:10373000192902D01A2902D100E000BF01E00020BF
:1037400000BF00BF0CE01C2902D01D2902D100E0FF
:1037500000BF01E0002000BF00BF01E0002000BF6B
:1037600000BF704770B504460D4616461CB1022CCA
:1037700001D0002070BD29462046FFF74DFF08B953
:103780000020F7E7C6B95CB9FD4800684FF00101B9
:1037900001FA05F140EA0100FA49C1F8900023E07E
:1037A000F94801684FF0010000FA05F041EA000114
:1037B000F448C0F8B01017E05CB9F44801684FF065
:1037C000010000FA05F041EA0001EE48C0F894104B
:1037D0000AE0EF4801684FF0010000FA05F041EA05
:1037E0000001E848C0F8B4104FF00100C2E770B51E
:1037F00005460C461DB1022D01D0002070BD2146AA
:103800002846FFF709FF08B90020F7E7B5B9DC48FB
:1038100000684FF0010101FA04F120EA0100D949E2
:10382000C1F89000D94801684FF0010000FA04F097
:1038300021EA0001D348C0F8941015E0D24800688E
:103840004FF0010101FA04F120EA0100CD49C1F86D
:10385000B000CF4801684FF0010000FA04F021EAFF
:103860000001C848C0F8B4104FF00100C6E72DE9C8
:10387000F04104460D461646002724B1022C02D022
:10388000781EBDE8F08129462046FFF7C5FE10B935
:103890004FF0FF30F5E796B944B9BE4800684FF0E5
:1038A000010101FA05F100EA01071AE0BA480168CE
:1038B0004FF0010000FA05F001EA000711E044B9F9
:1038C000B64800684FF0010101FA05F100EA01076E
:1038D00007E0B34800684FF0010101FA05F100EA82
:1038E00001073846CDE770B504460D461CB1022CE1
:1038F00001D0002070BD29462046FFF78DFE08B993
:103900000020F7E75CB9A74800684FF0010101FA11
:1039100005F140EA01009B49C1F88C000AE0A24889
:1039200001684FF0010000FA05F041EA00019548F6
:10393000C0F8AC104FF00100DCE72DE9F04106467D
:1039400017461D4601200022002407B901240DB9A5
:10395000002208E0012D01D1012204E0022D01D155
:10396000022200E00322052E7ED2DFE806F003B932
:10397000FDFCFB001F2978D2DFE801F010111213C3
:103980001415161718191A1BAEAEAE1C1D1E1F20DB
:10399000212223242526278788898A0000BF00BF8B
:1039A00000BF00BF00BF00BF00BF00BF00BF00BF1F
:1039B00000BF00BF00BF00BF00BF00BF00BF00BF0F
:1039C00000BF00BF00BF00BF00BF102922D2774B4D
:1039D0001B684FEA41084FF0030C0CFA08FC23EA7D
:1039E0000C03DFF8C8C1CCF8003063461B6C4FEA0B
:1039F00041084FF0030C0CFA08FC23EA0C034FEAD1
:103A0000410C02FA0CFC43EA0C03DFF8A0C1CCF82D
:103A1000403027E0654B5B68A1F1100C4FEA4C0881
:103A20004FF0030C0CFA08FC23EA0C03DFF87CC10E
:103A3000CCF8043063465B6CA1F1100C4FEA4C08E3
:103A40004FF0030C0CFA08FC23EA0C03A1F1100C54
:103A50004FEA4C0C02FA0CFC43EA0C03DFF84CC1B1
:103A6000CCF84430524B01E0B5E135E0D3F800C06A
:103A700001238B402CEA030304FA01FC43EA0C0304
:103A8000DFF82CC1CCF8003028E000BF00BF00BF39
:103A9000022D1FD1454B5B68A1F1100C4FEA4C0879
:103AA0004FF0030C0CFA08FC23EA0C03DFF8FCC00F
:103AB000CCF804303E4BD3F800C001238B402CEAF5
:103AC000030304FA01FC43EA0C03DFF8E4C0CCF87A
:103AD000003000E0002001E0002000BF00BF7CE1DA
:103AE000202967D2DFE801F01011A0A012A0A0A049
:103AF000131415A0A0A0161718191A1B1C1D1E1FA1
:103B0000202122232425262700BF00BF00BF00BF9D
:103B100000BF00BF00BF00BF00BF00BF00BF00BFAD
:103B200000BF00BF00BF00BF00BF00BF00BF00BF9D
:103B300000BF00BF00BF10293DD24FEA410C032354
:103B400003FA0CF3DB43DFF864C0CCF808306346BB
:103B50009B6C4FEA41084FF0030C0CFA08FC23EA77
:103B60000C0302E0F5E0B2E062E04FEA410C02FA39
:103B70000CFC43EA0C03DFF834C0CCF8483042E0D8
:103B80009080024000800240B08002409480024059
:103B9000B480024084800240A480024088800240B9
:103BA000A88002408C800240AC80024000C00240ED
:103BB00000C0092038E0F84BDB68A1F1100C4FEA97
:103BC0004C084FF0030C0CFA08FC23EA0C03DFF856
:103BD000C8C3CCF80C306346DB6CA1F1100C4FEA83
:103BE0004C084FF0030C0CFA08FC23EA0C03A1F17B
:103BF000100C4FEA4C0C02FA0CFC43EA0C03DFF801
:103C000098C3CCF84C30E54B1B6A4FF0010C0CFA12
:103C100001FC23EA0C0304FA01FC43EA0C03DFF87D
:103C20007CC3CCF8203001E0002000BF00BFD4E00E
:103C30000E2948D2DFE801F00708090A0B0C0D0E27
:103C40000F101112131400BF00BF00BF00BF00BF50
:103C500000BF00BF00BF00BF00BF00BF00BF00BF6C
:103C6000CD4B1B694FEA41084FF0030C0CFA08FCDE
:103C700023EA0C03DFF820C3CCF8103063461B6D39
:103C80004FEA41084FF0030C0CFA08FC23EA0C033E
:103C90004FEA410C02FA0CFC43EA0C03DFF8F8C2CD
:103CA000CCF85030BD4B1B6C4FF0010C0CFA01FCF2
:103CB00023EA0C0304FA01FC43EA0C03DFF8DCC23C
:103CC000CCF8403001E0002000BF00BF85E019299A
:103CD00002D01A2939D100E000BFAF4BDB69A1F156
:103CE000100C4FEA4C084FF0030C0CFA08FC23EAC6
:103CF0000C03DFF8A4C2CCF81C306346DB6DA1F1E5
:103D0000100C4FEA4C084FF0030C0CFA08FC23EAA5
:103D10000C03A1F1100C4FEA4C0C02FA0CFC43EA24
:103D20000C03DFF874C2CCF85C309C4BD3F860C055
:103D300001238B402CEA030304FA01FC43EA0C0341
:103D4000DFF858C2CCF8603001E0002000BF00BFAF
:103D500043E01C2902D01D2939D100E000BF8E4B61
:103D60005B6AA1F1100C4FEA4C084FF0030C0CFAFF
:103D700008FC23EA0C03DFF820C2CCF824306346A9
:103D80005B6EA1F1100C4FEA4C084FF0030C0CFADB
:103D900008FC23EA0C03A1F1100C4FEA4C0C02FAC8
:103DA0000CFC43EA0C03DFF8F0C1CCF864307B4B29
:103DB000D3F880C001238B402CEA030304FA01FCF2
:103DC00043EA0C03DFF8D4C1CCF8803001E00020D6
:103DD00000BF00BF01E0002000BF00BFBDE8F081D0
:103DE000F8B505460E4617466DA000680090002401
:103DF00007E03B46324621462846FFF79EFD601C01
:103E0000C4B21DF80500A042F3DCF8BD70B506464B
:103E10000C46154621463046FFF7FEFB08B9002048
:103E200070BD052E40D2DFE806F0030E19242F00E6
:103E30005A4840690121A140884305FA04F108432A
:103E40005649486130E05548406B0121A140884304
:103E500005FA04F108435149486325E04F48406D95
:103E60000121A140884305FA04F108434B49486504
:103E70001AE04A48406F0121A140884305FA04F145
:103E80000843464948670FE0464800684FF0010183
:103E900001FA04F120EA010005FA04F140EA010008
:103EA0003E49C1F8940000BF00BF4FF00100B7E7E2
:103EB00070B504460D46002629462046FFF7ACFBA8
:103EC00008B9701E70BD052C13D2DFE804F003069C
:103ED000090C0F00314846690BE03048466B08E09A
:103EE0002E48466D05E02D48466F02E02D480668D5
:103EF00000BF00BF4FF0010000FA05F0304201D0D2
:103F00000120DFE70020DDE770B505460C46002103
:103F10002846FFF781FB08B9002070BD052D13D29C
:103F2000DFE805F00306090C0F001C4844610BE0B4
:103F30001A48446308E01948446505E01748446797
:103F400002E01848046000BF00BF4FF00100E4E742
:103F500070B50446002500212046FFF75DFB08B937
:103F6000681E70BD052C13D2DFE804F00306090CAF
:103F70000F000A4845690BE00848456B08E0074810
:103F8000456D05E00548456F02E00648056800BF3D
:103F900000BF2846E5E7000000C0024000C009203D
:103FA0000C0C0E0E94C0092070B5044600250021AB
:103FB0002046FFF731FB08B9681E70BD052C13D2EF
:103FC000DFE804F00306090C0F001B4805680BE04E
:103FD0001948056A08E01848056C05E01648056EA2
:103FE00002E01648056800BF00BF2846E5E770B547
:103FF00005460C4600212846FFF70EFB08B90020B5
:1040000070BD052D13D2DFE805F00306090C0F0083
:10401000094804600BE00848046208E006480464AC
:1040200005E00548046602E00448046000BF00BFE4
:104030004FF00100E4E7000000C0092080C0092023
:1040400010B5002807DACA06140EC94A00F00F039B
:104050001B1FD45403E0CA06130EC64A135410BDE6
:1040600010B504461CBB4FF04020006F20F0030049
:104070004FF0402108670020C860BF48006800EB8F
:10408000800040004FF47A61B0FBF1F0401E4FF029
:10409000402188610846406940F0030048611D21C5
:1040A0000120FFF7CDFF012000F056F95BE0012C65
:1040B00016D1B248006F20F00300B0490867002015
:1040C000C860AF4888610846406940F00300486115
:1040D00011210220FFF7B4FF022000F03DF942E079
:1040E000022C20D1A748006840F48000A649C1F8FE
:1040F000C400A648006F20F00300A44908674FF0F1
:104100000000C8609E4888610846406940F003008E
:1041100048614FF011014FF00300FFF791FF0320BA
:1041200000F01AF91FE09748006840F40000964933
:10413000C1F8C4009648006F20F003009449086756
:104140004FF00000C8608E4888610846406940F022
:10415000070048614FF016014FF00400FFF770FFB1
:10416000042000F0F9F8012010BD8A48C06820F44E
:10417000401040F400108749C8600846C06C20F425
:10418000401040F40010C8647E48006840F04000D1
:104190007D49C1F8C4004FF003007F4948614FF4E6
:1041A0008040C8644FF00000C860734800684FF456
:1041B0007A61B0FBF1F0A0F10100774988616E48A7
:1041C00000684FF47A61B0FBF1F0A0F101004FF00C
:1041D0006401B0FBF1F0704988644FF0080048605A
:1041E0004FF0010070476C48406840F001006A4998
:1041F0004860012070476848406840F00200664906
:1042000048600120704710B5002400F009FB044607
:1042100064B162480078642827DC60480078401C5C
:104220005E490870204601F033FB1EE05B480078D1
:1042300064281ADB59484078642805DC57484078E0
:10424000401C5649487010E05448407864280CDB04
:1042500001F01BFB0446204601F01AFB204600F04B
:10426000E0FF00204D49087048704FF04020006882
:1042700040F001004FF04021086010BD3F48006849
:1042800040F001003D49086070474048006840F038
:1042900001003E49086070473D48006840F0080052
:1042A0003B4908607047014641B94FF040204068E3
:1042B00040F001004FF04022506014E0012906D187
:1042C0002E48406840F001002C4A50600BE0022963
:1042D00006D12E48406840F001002C4A506002E0B0
:1042E00001202B4A506001207047014641B94FF030
:1042F0004020406840F002004FF04022506014E03F
:10430000012906D11D48406840F002001B4A506058
:104310000BE0022906D11D48406840F002001B4A0C
:10432000506002E002201A4A5060012070470146A6
:10433000642900D96421104800684FF47A62B0FB08
:10434000F2F0401E48436422B0FBF2F0124A90643F
:10435000402010650120704700F01F0201219140AC
:1043600042094FF0E02303EB8202C2F800117047CC
:1043700018ED00E000E400E00000001000800040C4
:1043800040E20100C4C00F4000C00F4000000940DF
:104390000040094000C00240008001405A00001067
:1043A00010B5002807DACA06140E494A00F00F03B8
:1043B0001B1FD45403E0CA06130E464A135410BD03
:1043C00010B54548006920F4401040F4801042497F
:1043D00008614248006840F001004149C1F84801C5
:1043E0000846D0F84C0120F00100C1F84C014FF014
:1043F0001E014FF01200FFF7D3FF122000F05BF810
:1044000010BD10B53448006920F4400040F480002D
:10441000314908613148006840F002003049C1F874
:1044200048010846D0F84C0120F00200C1F84C01C8
:104430004FF01E014FF01300FFF7B2FF132000F002
:104440003AF810BD10B52448006920F0406040F0F3
:104450008060214908612148006840F00800204937
:10446000C1F848010846D0F84C0120F00800C1F816
:104470004C014FF01F014FF01500FFF791FF152081
:1044800000F019F810BD1748006840F00100144909
:10449000C1F8400170471348006840F0020010491D
:1044A000C1F8400170470F48006840F008000C490F
:1044B000C1F84001704700F01F02012191404209FC
:1044C0004FF0E02303EB8202C2F8001170470000B6
:1044D00018ED00E000E400E000C0024048C10F40D9
:1044E00000C00F4040C10F4030B5C34B9B68D8B2ED
:1044F00000F00F00062807D1BF4B1B68BF4C23708C
:10450000BD4B5B69D9B226E0042815D1BA4B5B6973
:10451000D9B2BB4B1B78402B02DB0023B84C237075
:10452000B54B1B68B54CB64D2D786355B44B1B7815
:104530005B1CB34C23700EE00C2807D1AE4B1B68FC
:10454000AE4C2370AC4B1B68DAB204E0022802D1F7
:10455000A94B9B68D8B230BD10B5AA48006840F09E
:104560000800A94CC4F8C400A848006820F0F00076
:10457000A64C20602046006840F050002060A4480F
:104580000068C0F3811333B1012B08D0022B09D08E
:10459000032B0BD000BF9F48006881080AE09D48AC
:1045A000016807E09B480068410803E099480068FB
:1045B000C10800BF00BF83208F4CE0600809964C03
:1045C000A488B0FBF4F2100A8B4C6060D0B220607B
:1045D0000320E0608720A06000BF8748406900F0AA
:1045E00060006028F9D101E0834802688248406990
:1045F00010F0010FF8D107207F4C6060002010BD43
:1046000010B5014601290BD1052001228240430942
:104610004FF0E02404EB8303C3F8002100BF08E05F
:104620000520012282407D4B440943F8242000BF2D
:1046300000BF012010BD10B502460023144609E05A
:104640006E48C05C2070581C83B2402B00DB03E036
:10465000481E81B20029F3D100BFA01A10BD10B5C9
:10466000024600230BE000BF6348406910F0200FB2
:10467000FAD0D05C604C2060581CC3B2491E00299F
:10468000F1D1012010BD70B504460D4616465DB946
:1046900000231A4615211846FFF74FF900231A4642
:1046A00008210220FFF749F914B1012C16D10AE0C4
:1046B000002215211046FFF7A9FB00220821022045
:1046C000FFF7A4FB15E0012215210020FFF79EFB58
:1046D000002208210220FFF799FB0AE000221521A1
:1046E0001046FFF793FB012208210220FFF78EFB03
:1046F00000BF00BF70BD10B500231A461E21012067
:10470000FFF71BF900221E210120FFF77FFB00228B
:1047100011461046FFF7B7FFFFF71EFF0120FFF716
:104720006FFF10BD0421002007E000BF324A52692C
:1047300012F0200FFAD04A1ED1B20029F5D104217F
:10474000002000E0401C4FF6FA729042FADB7047FE
:1047500010B52C4B1B6843F008032B4CC4F8C43035
:104760004FF00703244CA3604FF08303E36023461C
:104770005B6843F0070363604FF00103A3604FF0F1
:1047800080032363214B1B6823F0F0031F4C23603D
:1047900023461B6843F0500323601D4B1B68C3F383
:1047A000811232B1012A08D0022A09D0032A0BD083
:1047B00000BF184B1B6898080AE0164B186807E002
:1047C000144B1B68580803E0124B1B68D80800BF45
:1047D00000BF8323084CE36003090F4CA488B3FB9C
:1047E000F4F10B0A044C6360CBB223600323E36053
:1047F0008723A36010BD000000C00040B82A00104D
:104800006A000010C4C00F4000C00F4000C002404A
:10481000A8C10F40000000105E00001080E100E021
:1048200070B500250026002400BF0BE07A4A02EB99
:1048300044025178784A12F8140003230122FFF74A
:104840007CF8641C754800788442EFD3002415E09E
:10485000734A02EB44025178714A12F814000023A3
:104860001A46FFF76AF86E4A02EB440251786C4A26
:1048700012F814000122FFF7C9FA641C6948007895
:104880008442E5D300BF00240BE06D00624A02EBD6
:1048900044025178604A12F81400FFF709FB0543FF
:1048A000641C5E4800788442EFD3002415E05A4A25
:1048B00002EB44025178584A12F8140000231A46B9
:1048C000FFF73BF8544A02EB44025178524A12F87F
:1048D00014000122FFF79AFA641C504800788442C1
:1048E000E5D300240BE04E4A02EB440251784C4AD7
:1048F00012F8140003230122FFF71FF8641C494833
:1049000000788442EFD300BF00240BE07600444AD5
:1049100002EB44025178424A12F81400FFF7C8FA39
:104920000643641C3F4800788442EFD33D49097830
:1049300005FA01F0304370BD70B5082037490870A2
:1049400003203849087000F079F9002036490870D2
:10495000487000240CE0324A02EB44025178304A9D
:1049600012F8140000230122FEF7E7FF601CC4B216
:104970002C4800788442EEDB00240CE0264A02EB4F
:1049800044025178244A12F8140000231A46FEF714
:10499000D4FF601CC4B2214800788442EEDB0023BF
:1049A000012218211846FEF7C8FF00230122172113
:1049B0001846FEF7C2FF002218211046FEF7D2FE6D
:1049C000002217211046FEF7CDFE15201F210028DA
:1049D00007DACA06150E154A00F00F031B1FD5543F
:1049E00003E0CA06130E124A135400BF1821002018
:1049F000FEF779FF17210020FEF775FF1520012132
:104A0000814042094FF0E02303EB8202C2F800111B
:104A100000BF002070BD0000B494000070000010C2
:104A2000AE940000710000106C00001018ED00E062
:104A300000E400E00FB42DE9F843DDE91F481E9FB4
:104A4000002000909DF87550009011E09DF8000046
:104A5000395C1BA89DF80020805C814203DD0020AA
:104A60009DF8001078549DF80000401CC0B20090E2
:104A70009DF875009DF800108842E7DC022D03DAEE
:104A8000BDE8F8035DF814FBB8F1000F45D160787C
:104A900098BB207858BB284605EBD0714910A5EB90
:104AA000410101291ED101F030F87E200090002044
:104AB0006070681E2070217809A850F82160627823
:104AC0000021684600F0B5FF691E089B53F82100DD
:104AD0006278012100F0ADFF62780F21304600F0CE
:104AE000A8FFCDE701206070A81E20705AE00120C9
:104AF00060702078801E207054E0FFE77E200090D8
:104B00000020607000221146684600F092FF0122EA
:104B1000002149A000F08DFFB2E72178681E814294
:104B200009D1207861780144681E814203D10020B8
:104B30006070207036E0607870B9012060707E206F
:104B4000009001220021684600F073FF0022114608
:104B500039A000F06EFF93E7002060702178E81E16
:104B600081421CD100F0D1FF7E200090681E207091
:104B7000217809A850F8216062780021684600F089
:104B800058FF691E089B53F821006278012100F04C
:104B900050FF62780F21304600F04BFF70E720781D
:104BA000801C207000F0B1FF7E200090217809A8C1
:104BB00050F8216062780021684600F03AFF2278C0
:104BC000089951F822000022012100F032FF002252
:104BD0000F21304600F02DFF2078401C09A951F824
:104BE00020602178491C089A52F8210001221146C0
:104BF00000F01FFF01220F21304600F01AFF00BF16
:104C00003EE730B505460024012901DC002030BD17
:104C100033B912B9481EC4B209E0501EC4B206E04E
:104C2000481E904201D1002401E0501CC4B220462D
:104C3000EDE710B5149C10BD2000000000B587B052
:104C4000FCA207CA04AB07C3FDA000680390FDA146
:104C500003C9CDE90101022203A940F27F1001F04E
:104C6000D5FF9DF80C00012814DB9DF80C0063288B
:104C700010DC9DF80D0001280CDB9DF80D00632869
:104C800008DC9DF80C0001F0E4F99DF80D0001F03E
:104C9000F3F913E0ED49086804F014F9C0B28DF897
:104CA0000C00EA49486804F00DF9C0B28DF80D0017
:104CB000022203A940F27F1001F0B8FF9DF80D20F9
:104CC0009DF80C10012301A8FBF7D5FA062101A8D5
:104CD00001F0E5F9DE48DF49086001F0CBF9DD4974
:104CE000486001F0DAF9DB49886001F016FAD94929
:104CF000C860002081F84C000021D64880F84D1093
:104D000080F84E100320D34981F855000922002174
:104D100004A801F085F9D048D0490860092081F83D
:104D20005500CF4800684860CD488862CD4848604B
:104D3000012081F84C009DF81100CB4951F820105A
:104D4000C6488160022180F84D10C749C1629DF8B4
:104D50001200C64951F82010C048C160022180F8F5
:104D60004E10C24901639DF81300C14951F820104B
:104D7000BA480161022180F84F10BD4941639DF896
:104D80001400BC4951F82010B4484161032180F857
:104D90005010B84981639DF81500B74951F82010AB
:104DA000AE488161052180F85110B349C1639DF877
:104DB0001500B24951F82010A848C161022180F8BD
:104DC0005210AE4901649DF81700AD4951F820100A
:104DD000A2480162022180F85310A94941649DF85C
:104DE0001800A84951F820109C484162022180F81F
:104DF0005410A44981640020A3490870A349087095
:104E00000120A3490870487007B000BD70B5049C2C
:104E10001D78954200DB70BD00251E788D558228D7
:104E200042D00CDC12282AD004DC09284AD00A28F7
:104E30006BD12BE022281BD0422866D13BE0B0F595
:104E4000017F54D007DCB0F5817F26D0A0F5007536
:104E5000023D5AD144E0A0F58065023D39D0022DD3
:104E600053D130251E788D551D786D1C1D704DE079
:104E700031251E788D551D786D1C1D7046E032253C
:104E80001E788D551D786D1C1D703FE033251E78F2
:104E90008D551D786D1C1D7038E034251E788D559C
:104EA0001D786D1C1D7031E035251E788D551D78DF
:104EB0006D1C1D702AE036251E788D551D786D1CE1
:104EC0001D7023E037251E788D551D786D1C1D70D3
:104ED0001CE038251E788D551D786D1C1D7015E061
:104EE00039251E788D551D786D1C1D700EE02578B6
:104EF00055B91D78052D07DC2E251E788D55012509
:104F000025701D786D1C1D7000E000BF00BF00BF44
:104F100081E70246002000BF03E000231354431C36
:104F2000D8B28842F9DB70472DE9FF410446594861
:104F30000078584949780844C5B20020039002908F
:104F400000260190112C74D14248006850F82500C9
:104F50003F490968884244D1072633464A480278C7
:104F600001A94D4800F0A7FF02909DF80800012814
:104F700036D10198002833D00198632830D8012217
:104F8000002101A801F0D7F801F074F83149486018
:104F90002E49486803F096FFC0B202909DF80800C1
:104FA00003F0C8FF80460022012101F0B8F807464F
:104FB00003F088FFC0B202900022012102A801F094
:104FC000BAF89DF80800401E344951F820001F49E6
:104FD00088600A4691681F4AD068022200F035FEB8
:104FE0009EE01C48006850F825001949496888422D
:104FF00062D1072633462448027801A9264800F0EA
:105000005AFF02909DF80800002854D0019800280B
:1050100051D0019863284ED8019803F08BFF0B49BB
:10502000486001F03AF80B4988600198401E1B491E
:1050300036E0BBE0010902000000000000000000B3
:10504000010901003130302E303000003C010010E9
:1050500020010010C82B001074000010202C00103C
:10506000980000109C000010A4000010AC0000107C
:10507000B4000010BC000010C8000010DC000010DC
:10508000040100100C010010E7020010E6020010FD
:10509000E8020010EA020010DF02001048010010D0
:1050A00051F82000FE4988600A469168FD4AD068A0
:1050B000022200F0CAFD33E0FA48006850F82500EB
:1050C000F949896888422BD1F8480078401EC2B25D
:1050D00003A9F74800F02EFE02909DF80800F8B1F1
:1050E0000021039804F03AF81AD2F249039803F029
:1050F00035FF15D8EA4903988860486803F0E2FE56
:10510000C0B202909DF80800401EEB4A039942F895
:105110002010E6480078401EC1B2E54800F0BFFF0D
:10512000E6480178DF4890F85500401E81420FD1D3
:10513000E248417806220E2000F0D5FCDF494A788B
:10514000D849091D51F825000F2100F072FC1EE01E
:10515000062200210E2000F0C6FCD8490A780B7800
:10516000D049091D51F823000F2100F062FC0622EE
:1051700001210E2000F0B7FCD0490978491CC94A2A
:10518000121D52F8210001220F2100F052FC0621CD
:10519000C748FFF7BEFE0020C4490870C849087020
:1051A0000220C84908700120487038E0B4F5827FB9
:1051B0001DD1C248417806220E2000F094FCBF4960
:1051C0004A78B849091D51F825000F2100F031FC3B
:1051D0000621B748FFF79DFE0020B4490870B84982
:1051E00008700220B74908700120487017E0812C30
:1051F00015D0412C13D0B248AC4B0722AC490090DB
:105200002046FFF703FEAD48417806220E2000F04D
:105210006AFCAA4842780F21A54800F00AFCBDE8C4
:10522000FF8130B597B004460020169000251590F8
:10523000A448007806287DD2DFE800F07C039FF2C6
:10524000F1F0A4F58060013822D19F48007868B958
:1052500001209D49087003220021112000F043FC29
:105260000022112199A000F0E4FB85E09648007827
:105270000128FAD10020944908700322002111204E
:1052800000F031FC0022112191A000F0D2FB73E06C
:10529000212C2ED100F039FC7E20169000221146E0
:1052A00016A800F0C6FB804900220868012100F022
:1052B000C0FB7C49002248680F2100F0BAFB7A4904
:1052C00001224868114600F0B4FB76490122886843
:1052D0000F2100F0AEFB0020784908704870784933
:1052E00008707249087002207649087001204870E1
:1052F00042E0B4F5017F30D100F007FC7E2016902B
:105300000022114616A800F094FB7249002208689A
:10531000012100F08EFB7049002248680F2100F047
:1053200088FB6C4901224868114600F082FB6A49FB
:10533000012200E0A5E288680F2100F07AFB00203E
:105340005E49087048705E4908705849087003202B
:105350005C490870012048700EE0A4F50070023826
:105360000AD15E480078012803D100205B4908700B
:1053700002E001205949087084E2A4F50070013868
:1053800011D100214D4A47484C30CDE913211290EC
:105390004822A0F13C01684601F012FF41480FC8C5
:1053A000FFF748FB64E0A4F58070013811D10121BA
:1053B000424A3C484C30CDE9132112904822A0F1DA
:1053C0003C01684601F0FCFE36480FC8FFF732FB8F
:1053D0004EE0112C3FD139480078384949780844CB
:1053E000C0B216903C484C309DF85810405C0128E3
:1053F00017DD324842780E2139A000F01AFB2F4900
:105400004A782849091D9DF8583051F823000F218A
:1054100000F00FFB3E2000F0F9FA16E0F3E0EEE0BA
:1054200027E0264842780E212DA000F002FB2349F8
:105430004A781C49091D9DF8583051F823000F2166
:1054400000F0F7FA3E2000F0E1FA04201D49087050
:10545000022048700CE0B4F5827F09D100F004FF0F
:1054600000201649487008700120164908704870DD
:1054700008E212480078114949780844C0B21690F1
:10548000A4F50070013843D10C49164ACDE9122128
:105490001490482210491031684601F091FE23E033
:1054A0003C010010C82B001020010010E702001082
:1054B000DF0200100000164448010010EA0200104C
:1054C000E6020010E8020010DD0200104F4E00005E
:1054D0004F46460074000010202C0010DC02001023
:1054E0003C000000F82A0010F7480FC8FFF7A2FAA6
:1054F000F648007800280AD1062200210F2000F08B
:10550000F2FAF149002248680F2100F092FA75E0A2
:10551000A4F5807001381FD10120EC49EC4ACDE997
:10552000122114904822E8491031684601F048FEE3
:10553000E5480FC8FFF77EFAE448007800285DD1FF
:10554000062200210F2000F0CEFADF490022486831
:105550000F2100F06EFA51E0112C40D1DA484C30A6
:105560009DF85810405C012815DDD84842780E217E
:10557000AFF2940000F05DFAD4494A78D249091D8F
:105580009DF8583051F823000F2100F052FA3E20C8
:1055900000F03CFA17E0CD4842780E21AFF2C0008F
:1055A00000F047FAC9490978C84B5B780B44C649F3
:1055B000091D51F82300C5494A780F2100F039FA36
:1055C0003E2000F023FAC2489DF85810405CC149C3
:1055D00008700520C0490870032048700EE0B4F53B
:1055E000827F0BD100F040FE0020B849487008705F
:1055F000B84908700120B8490870487042E1204657
:10560000FFF792FC3EE1B1480078B0494978084480
:10561000C0B21690112C7CD1AB484C309DF858107C
:10562000405C01283CD1072015901598C3B2AB48C7
:10563000027815A9AA4800F03EFC0546A549159830
:105640000870DDB108460078002817DD08460078AC
:10565000632813DC9E499DF85820881801229DF884
:10566000581000F0DDFC9849091D9DF8582051F8AC
:1056700022009849097800F04FFA50E093484178A9
:1056800006220E2000F02FFA90494A788E49091D13
:105690009DF8583051F823000F2100F0CAF93EE080
:1056A000894800689DF8581050F821008D49096A12
:1056B00088420CD100F0D8FD002084494870087061
:1056C00084490870012084490870487027E07F48A9
:1056D000417806220E2000F006FA7E4800787C49C8
:1056E0009DF858208854784828309DF8581050F874
:1056F00021007849097850F821107348001D9DF861
:10570000582040F8221071494A7801469DF85830D7
:1057100000E013E051F823000F2100F08AF9062180
:105720006F48FFF7F6FB09226949802001F07EFAF5
:1057300003206949087001204870A1E0B4F5827F18
:1057400021D16248417806220E2000F0CCF95F4951
:105750004A785D49091D9DF8583051F823000F2102
:1057600000F067F900205B4908705C4908705E49E9
:10577000087006215A48FFF7CCFB032056490870F1
:10578000012048707CE0812C2ED14F484C309DF890
:105790005810405C012873DD4B4A4C329DF858305C
:1057A000D15C243A52F8230000234A4A1278FFF7CA
:1057B00028FA484908704548417806220F2000F031
:1057C00092F9414928319DF8583051F82310414B46
:1057D0001B7851F823003D494A780F2100F029F940
:1057E0003E2000F013F94BE0412C2ED136484C30CE
:1057F0009DF85810405C012842DD334A4C329DF838
:105800005830D15C243A52F823000123314A1278EF
:10581000FFF7F7F92F4908702C48417806220F202E
:1058200000F061F9284928319DF8583051F82310CB
:10583000284B1B7851F8230024494A780F2100F0A7
:10584000F8F83E2000F0E2F81AE01F484C309DF8CE
:105850005810405C022813DA2348204B07222049C5
:1058600000902046FFF7D2FA1848417806220E2011
:1058700000F039F9154842780F21194800F0D9F89D
:1058800000E000BF00BF17B030BD1849086870477E
:105890001649086070471648007870471548007828
:1058A00018B100201249087002E001201049087068
:1058B000012070470F48007870470E480078D8B133
:1058C00000200C4908701AE0202C0010EA02001099
:1058D000F82A0010DE020010E8020010E7020010B3
:1058E000DF02001074000010E6020010D802001061
:1058F000DC020010DD0200100120034908700120C5
:105900007047024800787047DD020010E80200107E
:105910002DE9F0410446002704F00102082100208F
:10592000FEF774FAC4F3400207210020FEF76EFA76
:1059300000BF00BF0220FEF737FB074627F0FF013C
:105940000220FEF754FB002206211046FEF75EFA05
:10595000002600E0761C052EFCD30220FEF7F8FAA4
:10596000C5B2012206210020FEF750FA47F0FF01E0
:105970000220FEF73CFB2846BDE8F08110B502206E
:10598000FFF7C6FF10BD2DE9F04104460D46002784
:10599000C4F3400207210020FEF738FA04F00102A8
:1059A00008210020FEF732FA00BF00BF00220621C6
:1059B0001046FEF72BFA002600E0761C052EFCD3DD
:1059C0000220FEF7C5FA074627F0FF0040EA050768
:1059D00039460220FEF798FA012206210020FEF740
:1059E00015FABDE8F08170B50446002500BFFFF749
:1059F000C5FF10F0800F04D028466D1CB0F57A7FEB
:105A0000F5D321460020FFF7BEFF70BD70B50446F8
:105A1000002500BFFFF7B2FF10F0800F04D028462A
:105A20006D1CB0F57A7FF5D321460120FFF7ABFF5F
:105A300070BD70B504460E461546802101EB8511F8
:105A40008819FFF7D0FF05E02078FFF7DFFF00BFE0
:105A500000BF641C20780028F6D170BD10B500246A
:105A600006E0214600231A460220FDF766FF641C6B
:105A7000082CF6DB00231A4605211846FDF75DFFCA
:105A800000231A4604211846FDF757FF00231A4643
:105A900008211846FDF751FF00231A460721184632
:105AA000FDF74BFF00231A4606211846FDF745FF78
:105AB000002205211046FEF7A9F900220421104614
:105AC000FEF7A4F9002010BD10B50120FFF78BFFF1
:105AD0003820FFF788FF0C20FFF785FF0620FFF72F
